S02B0000646973742F64656661756C742F70726F64756374696F6E2F61746D656761385F7863382E582E7072B8
S113000012C019C060C074C088C09CC014C013C0A2
S113001012C011C010C00FC00EC00DC00CC00BC068
S11300200AC009C008C011241FBECFE5D4E0DEBF5A
S1130030CDBF02D09CC0E4CF52E051B91CBA1FBA64
S113004094E09EBB81E08EBB48E64EBB31E43EBBF0
S113005022E42EBB8BBB63E261B91CBA8FBB9EBB8F
S11300608EBB4EBB3EBB2EBB8BBB64E461B91CBADA
S11300705FBB9EBB8EBB4EBB3EBB2EBB8BBB55E654
S113008051B91CBA53E05FBB9EBB8EBB4EBB3EBB9B
S11300902EBB8BBB28E821B91CBA9FBB99E09EBB41
S11300A05EBB9EBB5EBB1EBA95E09EBB1EBA1EBA6B
S11300B01EBA90E19EBB1EBA1EBA8BBB1CBA7894C2
S11300C019B87894FFCF1F920F920FB60F92112494
S11300D08F939F9381B191E090BB80BB789419B8C2
S11300E078949F918F910F900FBE0F901F90189549
S11300F01F920F920FB60F9211248F939F9382B188
S113010092E090BB80BB789419B878949F918F91BA
S11301100F900FBE0F901F9018951F920F920FB65D
S11301200F9211248F939F9383B193E090BB80BB74
S1130130789419B878949F918F910F900FBE0F9077
S11301401F9018951F920F920FB60F9211248F9340
S11301509F9384B194E090BB80BB789419B8789451
S11301609F918F910F900FBE0F901F901895F89448
S1050170FFCFBB
S9030000FC
