:1000000012C073C167C122C0A7C01DC01CC01BC0E5
:100010001AC019C018C017C016C015C014C013C02C
:1000200012C011C010C011241FBECFE5D4E0DEBF46
:10003000CDBF20E0A0E6B0E001C01D92A538B20718
:10004000E1F702D001C3DCCF7894FFCF1F920F926B
:100050000FB60F9211242F938F939F93CF93DF931B
:10006000CDB7DEB76097DEBFCDBF21B1215081B1E2
:1000700080936000811121C085E88EB91EBA1DB839
:1000800088E08CB981E08BB91AB8223028F091B1A0
:100090009FBB8F5F2813FBCF789460960FB6F894C0
:1000A000DEBF0FBECDBFDF91CF919F918F912F917A
:1000B0000F900FBE0F901F901895813039F082304D
:1000C000B1F18330D9F08CE287BBE6CF91B11EB895
:1000D00098E69DB98CB99EE69BB991E199B91AB899
:1000E00091B19093680091B190936A001CB890917F
:1000F00068009FBB8CB910926900CECF293061F6A1
:100100008C81811125C081E09D81911101C080E029
:10011000988591111FC091E02985211101C090E0BF
:100120001EB88DB91CB89BB981E08AB9B5CF81B131
:100130008093680081B180936A001EB81DB81CB816
:100140008EE68BB919B81AB8809168008FBBA4CF1E
:1001500081E0DECF91E0E4CF1F920F920FB60F92B5
:1001600011242F933F934F935F936F937F938F93BC
:100170009F93AF93BF93CF93DF93EF93FF9320B100
:1001800081B180916000813009F448C0823099F0DB
:10019000FF91EF91DF91CF91BF91AF919F918F919F
:1001A0007F916F915F914F913F912F910F900FBE73
:1001B0000F901F90189580916900882309F470C0F2
:1001C0001092690021117DC091E080E020916300D0
:1001D00030916400232B09F47BC0C92FD82FBE01B6
:1001E0000D2E000C880B990BA3D12AE939E949E5BA
:1001F00050E403D120E030E544E655E49AD065D1DF
:10020000D0936400C0936300709374006093730094
:1002100087E387BB809168008FBBBACF909169005C
:10022000992389F110926900211146C091E080E084
:100230002091630030916400232B09F447C0C92F3B
:10024000D82FBE010D2E000C880B990B71D12AE915
:1002500039E949E550E4D1D020E030E544E655E401
:1002600068D033D1D0936400C0936300709374005E
:100270006093730087E387BB1CB8809168008FBBD5
:1002800081E08CB985CF8093690030E030936400C1
:10029000209363001CB890916A009FBB8CB978CF03
:1002A00081E08093690030E0309364002093630024
:1002B00080916A008FBB6CCF65E47EE0C1E0D0E046
:1002C000D1CF65E47EE0C1E0D0E09ACF90E0B7CF37
:1002D00090E083CF1F920F920FB60F921124789463
:1002E0000F900FBE0F901F9018951F920F920FB690
:1002F0000F9211242F933F934F935F936F937F93AC
:100300008F939F93AF93BF93EF93FF93E3DFFF919F
:10031000EF91BF91AF919F918F917F916F915F917D
:100320004F913F912F910F900FBE0F901F901895F6
:100330005058BB27AA270ED04DC13ED130F043D133
:1003400020F031F49F3F11F41EF433C10EF4E09518
:10035000E7FB29C1E92F4FD180F3BA176207730772
:100360008407950718F071F49EF567C10EF4E095C7
:100370000B2EBA2FA02D0B01B90190010C01CA015F
:10038000A0011124FF27591B99F0593F50F4503E0A
:1003900068F11A16F040A22F232F342F4427585FFC
:1003A000F3CF469537952795A795F0405395C9F714
:1003B0007EF41F16BA0B620B730B840BBAF09150CC
:1003C000A1F0FF0FBB1F661F771F881FC2F70EC06B
:1003D000BA0F621F731F841F48F48795779567953E
:1003E000B795F7959E3F08F0B3CF9395880F08F027
:1003F0009927EE0F9795879508950CD0EBC0E3D021
:1004000040F0DAD030F021F45F3F19F0CCC0511148
:1004100015C1CFC0F0D098F39923C9F35523B1F398
:10042000951B550BBB27AA2762177307840738F063
:100430009F5F5F4F220F331F441FAA1FA9F333D0C2
:100440000E2E3AF0E0E830D091505040E695001C76
:10045000CAF729D0FE2F27D0660F771F881FBB1F32
:10046000261737074807AB07B0E809F0BB0B802D0C
:10047000BF01FF2793585F4F2AF09E3F510568F058
:1004800092C0DCC05F3FECF3983EDCF38695779535
:100490006795B795F7959F5FC9F7880F911D96955A
:1004A000879597F90895E1E0660F771F881FBB1FB6
:1004B000621773078407BA0720F0621B730B840B63
:1004C000BA0BEE1F88F7E095089504D06894B11137
:1004D000B5C0089598D088F09F5790F0B92F99270C
:1004E000B751A0F0D1F0660F771F881F991F1AF03F
:1004F000BA95C9F712C0B13081F09FD0B1E008952C
:100500009CC0672F782F8827B85F39F0B93FCCF3AC
:10051000869577956795B395D9F73EF49095809534
:10052000709561957F4F8F4F9F4F0895E89409C054
:1005300097FB3EF490958095709561957F4F8F4F16
:100540009F4F9923A9F0F92F96E9BB279395F6952C
:10055000879577956795B795F111F8CFFAF4BB0FAA
:1005600011F460FF1BC06F5F7F4F8F4F9F4F16C00E
:10057000882311F096E911C0772321F09EE8872F98
:10058000762F05C0662371F096E8862F70E060E054
:100590002AF09A95660F771F881FDAF7880F9695CD
:1005A000879597F9089597F99F6780E870E060E074
:1005B00008959FEF80EC089500240A9416161706FC
:1005C00018060906089500240A9412161306140644
:1005D00005060895092E0394000C11F4882352F0A7
:1005E000BB0F40F4BF2B11F460FF04C06F5F7F4F5F
:1005F0008F4F9F4F089557FD9058440F551F59F046
:100600005F3F71F04795880F97FB991F61F09F3FFF
:1006100079F087950895121613061406551FF2CF28
:100620004695F1DF08C0161617061806991FF1CF78
:1006300086957105610508940895E894BB2766279F
:0C0640007727CB0197F90895F894FFCFBD
:00000001FF
